:100000000C946B020C94B2020C94B2020C94B202E7
:100010000C94B2020C94B2020C94B2020C94B20290
:100020000C94B2020C94B2020C945A230C942D241A
:100030000C94DF190C94B2020C94B2020C94B2022C
:100040000C94B2020C94B2020C94B2020C94B20260
:100050000C94B2020C94401A0C94B2020C94B202AA
:100060000C94B2020C94B2020C94B2020C94B20240
:100070000C94B2020C94B2020C94B2020C94B20230
:100080000C94B2020C94B2020C94B2020C94B20220
:100090000C94B2020C94B2020C94B2020C94B20210
:1000A0000C94B2020C94B2020C94B20201E0011959
:1000B00002E002190001E0010602E002060001511F
:1000C0000030013001000100357001000100010025
:1000D0000100010001000100010001000100010018
:1000E0000100010001000100010001000100010008
:1000F00001000100010001000100010001000100F8
:1001000001000100010001000100010001000100E7
:100110000100010001000100010001000100643242
:1001200014643214783C1E1E140A050000000001FD
:1001300001010202030405050607090A0B0C0E0F54
:100140001112141517191B1D1F212325282A2C2FC6
:10015000313436393B3E414346494C4F5255585A4B
:100160005D6164676A6D707376797C7F8386898C44
:100170008F9295989B9EA2A5A7AAADB0B3B6B9BC25
:10018000BEC1C4C6C9CBCED0D3D5D7DADCDEE0E25F
:10019000E4E6E8EAEBEDEEF0F1F3F4F5F6F8F9FA5F
:1001A000FAFBFCFDFDFEFEFEFFFFFFFFFFFFFFFE73
:1001B000FEFEFDFDFCFBFAFAF9F8F6F5F4F3F1F0BA
:1001C000EEEDEBEAE8E6E4E2E0DEDCDAD7D5D3D028
:1001D000CECBC9C6C4C1BEBCB9B6B3B0ADAAA7A583
:1001E000A29E9B9895928F8C898683807C7976736A
:1001F000706D6A6764615D5A5855524F4C49464369
:10020000413E3B393634312F2C2A282523211F1D0E
:100210001B1917151412110F0E0C0B0A09070605EE
:1002200005040302020101010000000000000000BB
:1002300001010101010101010102020202020202A7
:10024000020203030303030303030404040404047A
:10025000050505050506060606060707070708083B
:1002600008080909090A0A0A0A0B0B0B0C0C0C0DE9
:100270000D0D0E0E0F0F0F1010111111121213137E
:100280001414151516161717181819191A1A1B1CF5
:100290001C1D1D1E1F1F2020212222232425252650
:1002A000272728292A2B2B2C2D2E2F2F3031323384
:1002B000343536363738393A3B3C3D3E3F40414293
:1002C0004344464748494A4B4C4D4F505152535571
:1002D0005657585A5B5C5E5F606263646667696A22
:1002E0006C6D6E707173747678797B7C7E8081839F
:1002F0008486888A8B8D8F91929496989A9B9D9FE5
:10030000A1A3A5A7A9ABADAFB1B3B5B7B9BBBDBFED
:10031000C1C4C6C8CACCCFD1D3D6D8DADCDFE1E4B9
:10032000E6E8EBEDF0F2F5F7FAFCFF12036B00657F
:1003300000790062006F0061007200640000001626
:100340000371006D006B006200750069006C006451
:10035000006500720000000403090409026D000436
:100360000100A0FA090400000103010100092111A4
:100370000100012240000705810308000A09040169
:10038000000103010200092111010001224D0007B3
:1003900005820308000A09040200010300000009A5
:1003A00021110100012236000705830308000A0914
:1003B000040300010300000009211101000122399A
:1003C000000705840320000112011001000000084D
:1003D000EDFE606001000102000105010906A101B6
:1003E000050719E029E71500250195087501810227
:1003F00005081901290595057501910295017503F7
:1004000091010507190029F71500250195F87501D7
:100410008102C005010980A10185021601002603A1
:10042000001A81002A8300751095018100C0050C17
:100430000901A1018503160100269C021A01002A68
:100440009C02751095018100C005010902A10109F6
:1004500001A100050919012905150025019505755A
:1004600001810295017503810105010930093115EA
:1004700081257F95027508810609381581257F95AC
:100480000175088106050C0A38021581257F950142
:1004900075088106C0C005010906A101050719E01C
:1004A00029E7150025019508750181029501750858
:1004B000810105081901290595057501910295012C
:1004C000750391010507190029FF150026FF009506
:1004D0000675088100C011241FBECFEFDAE0DEBF31
:1004E000CDBF04B603FE27C080911C0290911D026F
:1004F000A0911E02B0911F028730904BA740B04BD5
:10050000D1F410921C0210921D0210921E02109241
:100510001F0214BE84B7877F84BF0FB6F894A895D6
:1005200080916000886180936000109260000FBE2F
:10053000E0E0F8E3099511E0A0E0B1E0EAE6FFE4CD
:1005400002C005900D92AC32B107D9F722E0ACE2BF
:10055000B1E001C01D92AC31B207E1F70E94AE20BC
:100560000C947E270C940000FC01662329F0613076
:1005700049F090E080E0089582818823D1F385EBF3
:1005800090E0089582818823A1F38CEA90E0089599
:100590000895089581E00895089581E008950C94E8
:1005A000CA020E941C122FEF84E39CE0215080407D
:1005B0009040E1F700C000000C94631AEF92FF92A4
:1005C0000F931F93CF93DF937C01DC010D911C915E
:1005D000119780916201811143C012968C918823FA
:1005E000D1F1C8010E94A117C82F682FC8010E942D
:1005F0004A17B8018C2F0E948704EC01B7010E94B2
:10060000CF02882309F468C0B701CE010E94BE065C
:10061000882309F461C0CE33B0E7DB0770F4C4333C
:10062000E0E7DE0710F5C130F0E7DF0709F45CC052
:1006300050F5C115D04709F44AC081E080932E01DE
:1006400080932F01C701DF91CF911F910F91FF90F0
:10065000EF900C94CD02C8010E947817C82FC9CF23
:10066000C8010E94A117B801C6CFFE01E553F047AB
:10067000D70112968C91E930F10508F040C0E0589E
:10068000F84D0C943027CE01825090474397A8F63E
:10069000F70182818823B1F20E946819811102C09A
:1006A0000E9442190E94851990E090930D02809358
:1006B0000C02FE01E350F04780910C028160E231B0
:1006C000F10508F047C0E757F84D0C943027F701C3
:1006D000828181110E94D10280E0DF91CF911F9130
:1006E0000F91FF90EF900895D70112968C91882377
:1006F00099F38091CD0181608093CD01EDCF882366
:1007000059F30E94A40AE8CF882331F30E949A0A81
:10071000E3CF882309F30E947709DECF8823E1F233
:100720000E948F09D9CF8823B9F20E94AE09D4CF95
:10073000882391F20E94C609CFCF882369F20E94D4
:10074000DE09CACF882341F20E94F609C5CF809105
:100750000C02826080930C0280910C020E94891925
:100760000E941C12B9CF80910C028460F3CF80915B
:100770000C028860EFCF80910C028061EBCF8091FA
:100780000C028062E7CF80910C028064E3CF8091FD
:100790000C028068DFCF80910C028C60DBCF8091EF
:1007A0000C028E7FD7CF80910C028D7FD3CF8091AA
:1007B0000C028B7FCFCF80910C02877FCBCF8091B3
:1007C0000C028F7EC7CF80910C028F7DC3CF8091AA
:1007D0000C028F7BBFCF80910C028F77BBCF8091B3
:1007E0000C02837FB7CF90910C02892F97FB87F97A
:1007F0008058B0CF882361F010922E010E940F1A0A
:1008000090932D0180932C0182E00E94610F64CFB0
:1008100080912E0181110FC080912C0190912D01AA
:100820000E941B1A883C910530F486E20E94360E25
:1008300086E20E94120F82E00E94680F4DCF88234B
:1008400051F010922F010E940F1A90932D01809366
:100850002C0180E2DACF80912F0181110FC08091AD
:100860002C0190912D010E941B1A883C910530F4B7
:1008700087E20E94360E87E20E94120F80E2DCCFF0
:100880000C940F07269A2E988FEF9FEF9093870076
:100890008093860082E28093800089E180938100CA
:1008A0000C94601E0E9442040C940D07282F2E9871
:1008B00080918000211108C08F7D8093800010926C
:1008C0008B0010928A00089580628093800023300C
:1008D00039F48FEF9FEF90938B0080938A000895F7
:1008E00083E090E0821B9109880F991F2FEF3FEF63
:1008F00002C0369527958A95E2F730938B002093B6
:100900008A0008950C94CC020C9482040895272F39
:10091000280F3327331FF901C901880F991FE80FEA
:10092000F91FE60FF11DEE0FFF1FE254FF4F8591F7
:1009300094910895FC01EE0FFF1FE25EFE4F85913A
:10094000949108950E9487040E9442069C012115FB
:1009500081E5380708F046C0211590E5390708F011
:100960000CC1283E310518F5203E3105C8F5283A5E
:10097000310578F4253A310508F097C0213031056A
:1009800079F1C9010497813A910550F130E020E0F6
:1009900027C02D3B310508F493C0C901805C910943
:1009A0008032910598F70E949A049C0119C0211584
:1009B00080E3380770F4211590E2390708F0D7C0BA
:1009C0002F3F310509F060F4203F3105F8F2306522
:1009D00007C0211580E4380708F4CCC03F70306AA6
:1009E000C9010895211590E73907C8F5211580E65A
:1009F000380708F0FAC0211594E53907F0F42115FD
:100A000083E5380708F0D8C0211592E5390708F4C6
:100A1000CEC0C9018370992741E050E002C0440F65
:100A2000551F8A95E2F72695269580E2289F90012A
:100A30001124242B352B3C68D3CF211595E539079C
:100A400008F4CEC0C90195558F3F910511F008F00B
:100A50009DCF322F222722273F713062C1CF213311
:100A600080E7380709F4C3C0A0F4203380E73807D3
:100A700048F4203290E7390708F488CF20523047F5
:100A8000346DAECF2033304709F080CF20E031ED18
:100A9000A7CF223390E7390709F4ACC0233330479E
:100AA00009F074CF20E033ED9BCF253A310509F4EE
:100AB000A4C0263A310509F0A3C022E830E490CF63
:100AC000283A310509F49FC0293A310509F49EC03E
:100AD0002A3A310509F49DC02B3A310509F49CC02E
:100AE0002C3A310509F49BC02B3B310509F49AC01F
:100AF0002C3B310509F499C02D3A310509F498C011
:100B0000203B310509F497C02E3A310509F496C00F
:100B10002F3A310509F495C0213B310509F494C001
:100B2000223B310509F493C0233B310509F492C0FF
:100B3000243B310509F491C0253B310509F490C0EF
:100B4000263B310509F48FC0273B310509F48EC0DF
:100B5000283B310509F48DC0293B310509F48CC0CF
:100B60002A3B310509F48BC020E034E439CFC901B8
:100B70009F7019CF3327306C33CFC90154E096955D
:100B800087955A95E1F78370422F469546954370B5
:100B900090E2499FA0011124582B822F837021E0FD
:100BA00030E002C0220F331F8A95E2F742CF322F86
:100BB0002227216F306A14CFC9018370992741E041
:100BC00050E002C0440F551F8A95E2F726952695FE
:100BD00080E2289F90011124242B352B3A6800CF06
:100BE000322F2227246F306AFBCE3F7036CF20E0B1
:100BF00030EDF6CE20E032EDF3CE21E830E4F0CE59
:100C000023E830E4EDCE22EE34E4EACE29EE34E4FB
:100C1000E7CE2AEE34E4E4CE25EB34E4E1CE26EB55
:100C200034E4DECE23EB34E4DBCE24EB34E4D8CE64
:100C300027EB34E4D5CE2CEC34E4D2CE2DEC34E4E6
:100C4000CFCE23E835E4CCCE2AE835E4C9CE22E97C
:100C500035E4C6CE24E935E4C3CE21E236E4C0CE85
:100C600023E236E4BDCE24E236E4BACE25E236E411
:100C7000B7CE26E236E4B4CE27E236E4B1CE2AE29D
:100C800036E4AECE803E910581F1C8F48133910502
:100C900009F462C048F48932910509F456C08A32D9
:100CA000910509F460C0089589339105B9F082383F
:100CB0009105A1F08533910509F440C00895863E61
:100CC000910561F138F4823E9105B1F0833E9105C2
:100CD000E1F00895873E910551F1089520910C02AD
:100CE0002370D9F080EE90E0089520910C0220FF4F
:100CF00014C089E390E0089520910C0222FF0DC0FA
:100D000024FD09C083EE90E0089520910C0222FD9D
:100D100031C024FF02C090E080E0089520910C02D1
:100D200023FFFBCF24FDF7CF87EE90E008952091BD
:100D30000C0223FFEECF86EE90E0089520910C0286
:100D400025FFEBCF89E290E0089520910C0225FF6A
:100D5000E4CF85E390E0089520910C0226FFDDCFDB
:100D60008AE290E0089520910C0226FFD6CF81E31D
:100D700090E0089582EE90E0089508950F931F93F8
:100D8000CF938C01FB018281811106C0C1E08C2FC1
:100D9000CF911F910F910895C0913D01C11125C0C0
:100DA0000531104799F70E94BD0681E080933D010F
:100DB0000E940F1A90933C0180933B0110923001E6
:100DC00010923201109231011092340110923301CD
:100DD00010923601109235011092380110923701AD
:100DE00010923A0110923901D2CF80913B0190913B
:100DF0003C010E941B1A883C910540F6809130010D
:100E0000E82FF0E0EE0FFF1FEF5CFE4F1183008331
:100E10008F5F80933001C0E0BACF0C94C8020C946D
:100E2000C902CF93DF9385B7806885BF85B7806897
:100E300085BFA4E1B1E047E151E0C1E0D0E08D9190
:100E4000E82FE295EF70F0E061A18F709E0101C084
:100E5000220F8A95EAF7922F9095962391A382A16B
:100E6000822B82A34A175B0751F754985C9A109221
:100E70003F0110923E01DF91CF910C945204DF921A
:100E8000EF92FF920F931F93CF93DF9304E111E052
:100E9000D0E0C0E0EE24E394F12CDD24D394F801FB
:100EA00081918F01E82FE295EF70F0E091A18F70B2
:100EB000A70101C0440F8A95EAF7892F842B81A3EB
:100EC00092A1342F3095932392A360EA6A95F1F7AB
:100ED00020913E01C7010C2E01C0880F0A94EAF749
:100EE0004C9936C0822B80933E0190913E0181A1A6
:100EF000832381A382A1842B82A3291741F0D0925E
:100F000040010E940F1A9093420180934101219663
:100F1000C330D10521F680914001882371F0809182
:100F20004101909142010E941B1A069730F0809176
:100F30003E0180933F01109240010E94400481E0F5
:100F4000DF91CF911F910F91FF90EF90DF90089567
:100F500080958223C8CFE82FF0E0E15CFE4F8081CE
:100F6000089508959C01CB0165B1542F50955623E7
:100F700065B1462B6FB7F894820F931F2817390776
:100F800011F46FBF0895F90171919F01E8E045B92F
:100F9000000000C077FF55B9770F000000C000C007
:100FA00000C055B900C0EA9591F7E8CFFC0194B1B3
:100FB000942B94B99B01220F331F620F731FCF0133
:100FC0000E94B20787EC90E00197F1F700C00000A3
:100FD000089542E00C94D607AF92BF92CF92DF9271
:100FE000EF92FF920F931F93CF93DF937C01E90160
:100FF000842F242F662309F43FC0C42ED12C8FEFF9
:1010000090E0861B9109489F8001499F100D112493
:10101000212F812F9927C81AD90A9CE3A92EB12C18
:10102000C701B5010E940827FB01BC01C69EC00193
:10103000C79E900DD69E900D1124B5010E940827E1
:10104000E330F10509F443C080EFE816F10468F4D9
:10105000E130F10591F13297A1F18CE3E816F1044A
:1010600040F180E020E040E007C0E430F10599F174
:10107000842F861B3597A9F7E42FF0E0E55DFD4F3F
:101080004491E22FF0E0E55DFD4F9491E82FF0E010
:10109000E55DFD4FE49149839883EA83DF91CF9129
:1010A0001F910F91FF90EF90DF90CF90BF90AF9086
:1010B0000895812F262F210FDFCF812F242F461B4C
:1010C000DBCF862F810FE42F412F2E2FD5CFE42F9A
:1010D000E61B842FF9CF842F462F410FCDCF88E018
:1010E00090E00C943E27AB01BC0188E090E00C94AA
:1010F0005C27CF93DF9300D000D0CDB7DEB7EAEF07
:10110000F1E083E0808311828FEF8283838380917B
:10111000FA019091FB01A091FC01B091FD0189833E
:101120009A83AB83BC83BC01CD010F900F900F90CD
:101130000F90DF91CF910C9473088091FA0180FD9C
:101140000CC010920302109202021092040210923C
:101150000602109205021092070262E070E082E03F
:1011600092E00C94E907E2E0F2E08183608342833D
:101170008483638345830C949D08EF92FF920F93C1
:101180001F93CF93DF9300D00F92CDB7DEB7182F08
:10119000E92EF62E042F8091FA019091FB01A09187
:1011A000FC01B091FD018093FE019093FF01A0939B
:1011B0000002B09301028091FA0180FF1FC09E01DE
:1011C0002F5F3F4F812F9E2D0E94EC078091FE01E3
:1011D00010FB87F98093FE0116958091FF018078BE
:1011E000182BE0FA17F91093FF01F0920002009318
:1011F00001024B8169818A810E94B3080F900F9090
:101200000F90DF91CF911F910F91FF90EF90089574
:101210000F931F93CF93DF9300D000D00F92CDB7E1
:10122000DEB789839D83062F142F8091FA0180FFFA
:1012300054C0982F9E77923091F589819D810E94AC
:10124000BD088091FA01B981B0FB87F98093FA015A
:10125000B6958091FB018078B82B8D8180FBB7F922
:10126000B093FB010093FC011093FD018091FA0102
:101270009091FB01A091FC01B091FD0189839A83BB
:10128000AB83BC83BC01CD010F900F900F900F90EA
:101290000F90DF91CF911F910F910C947308982FAD
:1012A00096959F732EE3290F2F73243018F4109115
:1012B000FD01C7CF965C9F73993018F6881F882769
:1012C000881F9091FB019D83990F982B9983AD8185
:1012D000A7FBAA27A0F9AD83B4CF0F900F900F9072
:1012E0000F900F90DF91CF911F910F910895EAEF2A
:1012F000F1E02081221F2227221F3091FB01432F82
:10130000440F842F822B37FB992790F9089668E6C3
:1013100071E00E941C27438162810C94080920918E
:10132000FA01221F2227221F3091FB01432F440F75
:10133000842F822B37FB992790F98830910540F450
:10134000805A9E4F4091FD016091FC010C94080968
:10135000089768E671E00E941C27F4CF6091FC01B9
:10136000683F90F4685F8091FA01881F8827881F82
:101370009091FB01292F220F97FB992790F940911B
:10138000FD01822B0C9408096FEFEDCF6091FC01F9
:10139000683090F068508091FA01881F8827881F74
:1013A0009091FB01292F220F97FB992790F94091EB
:1013B000FD01822B0C94080960E0EDCF4091FD0106
:1013C000483F90F4485F8091FA01881F8827881F62
:1013D0009091FB01292F220F97FB992790F960919B
:1013E000FC01822B0C9408094FEFEDCF4091FD01D9
:1013F000483090F048508091FA01881F8827881F54
:101400009091FB01292F220F97FB992790F960916A
:10141000FC01822B0C94080940E0EDCFCF93DF93C1
:1014200000D000D0CDB7DEB79091FA0190FF47C051
:101430009178811132C092609093FA018091FA0103
:101440009091FB01A091FC01B091FD0189839A83E9
:10145000AB83BC83BC01CD010E9473088091FA016B
:10146000982F9E77923009F510925801881F88278F
:10147000881F9091FB01292F220F97FB992790F944
:101480004091FD016091FC01822B0F900F900F9015
:101490000F90DF91CF910C940809893110F090637F
:1014A000CBCF8F73880F982BC7CF982F9695925CD0
:1014B0009F739631D8F691E090935801D7CF0F9053
:1014C0000F900F900F90DF91CF9108958091CD01F3
:1014D00081608093CD0181E0809359010E94681959
:1014E000811104C00E9442190E9479080E946F086D
:1014F0006093FA017093FB018093FC019093FD01CE
:101500006E7761F40E9479080E946F086093FA0177
:101510007093FB018093FC019093FD0181E0809327
:1015200058018091FA0180FF04C086958F730C9456
:101530000E0A08958091FA0186958F738F5F893125
:1015400008F081E00C940E0ACF93DF9300D000D016
:10155000CDB7DEB79091FA01892F8E7F90FF816021
:101560008093FA018091FA019091FB01A091FC0116
:10157000B091FD0189839A83AB83BC83BC01CD010B
:101580000E9473088091FA0180FF0AC086958F73CC
:101590000F900F900F900F90DF91CF910C940E0A47
:1015A000109258019FEFA0E7B2E09150A040B040E8
:1015B000E1F700C000000F900F900F900F90DF91A7
:1015C000CF910C949D08CF93C82F80915601909194
:1015D00057010E941B1AEC2FF0E0E95DFE4FE491E9
:1015E000E817190609F010F50E940F1A9093570199
:1015F00080935601E0915501F0E0E55DFE4F449186
:101600008091FA01881F8827881F9091FB01292F5C
:10161000220F97FB992790F96091FC01822B0E9481
:10162000BD08809155018F5F80935501CF9108953A
:10163000CF93C82F80915301909154010E941B1A9F
:10164000EC2FF0E0EC5DFE4FE491E817190609F08D
:10165000E8F40E940F1A9093540180935301409133
:10166000FD016091FC0180915101909152010E9415
:10167000BD088091510190915201019668E671E098
:101680000E9408279093520180935101CF910895B1
:10169000FF920F931F93CF93DF93F82E80914F010A
:1016A000909150010E941B1AEF2DE695F0E0EC5D41
:1016B000FE4FE491E817190609F0B0F50E940F1AE1
:1016C0009093500180934F0100914D0110914E0174
:1016D000C8E6D1E0C801BE010E94082722E032E03E
:1016E0004091FD016091FC010E94EC07C8018C54FF
:1016F0009F4FBE010E94082725E032E04091FD0186
:101700006091FC010E94EC070E949D0880914D01B0
:1017100090914E01F0FE0EC00196BE010E94082776
:1017200090934E0180934D01DF91CF911F910F91C6
:10173000FF9008950197F4CFAF92BF92CF92DF92BE
:10174000EF92FF920F931F93CF93DF93C82F1FEF5A
:1017500080FF11E080914B0190914C010E941B1A77
:10176000C695EC2FF0E0EF5DFE4FE491E817190607
:1017700011F008F04FC00E940F1A90934C01809313
:101780004B01C2E0D2E0D12CC12C27E0A22EB12C1B
:10179000198218821A8287E0E82EF12C00E08091ED
:1017A0004A01800F87FD8E5F082E000C990B8C1567
:1017B0009D05E9F42091FD012E9DC0012F9D900D06
:1017C0001124B5010E941C27462F8091FA01881F21
:1017D0008827881F9091FB01592F550F97FB992758
:1017E00090F99E016091FC01852B0E94EC07010F8E
:1017F00081E0E81AF10899F62396CA94CD28A9F455
:101800000E949D0880914A011130B9F4811111C0E4
:1018100010934A01DF91CF911F910F91FF90EF90AC
:10182000DF90CF90BF90AF900895CC24C394D12C7B
:10183000AFCF815080934A01EDCF90E00196817047
:101840009927F8CFFF920F931F93CF93DF9300D088
:1018500000D000D0CDB7DEB7182F8091480190910D
:1018600049010E941B1AE12FF0E0E25EFE4FE49175
:10187000E817190611F008F072C00E940F1A909331
:101880004901809348011A8219821B8210E0F0906E
:10189000000100914701802FF19E800D1124181640
:1018A000B4F08091FA01881F8827881F9091FB016E
:1018B000592F550F97FB992790F99E012F5F3F4FA6
:1018C0004091FD016091FC01852B0E94EC071F5F98
:1018D0001730E9F61D821C821E8210E0802FF19ED7
:1018E000800D11241816B4F48091FA01881F8827FE
:1018F000881F9091FB01592F550F97FB992790F95D
:101900009E012C5F3F4F4091FD016091FC01852BB2
:101910000E94EC071F5F173009F78D818093030247
:101920008C81809302028E81809304028A8180934D
:1019300006028981809305028B81809307020E94B1
:101940009D0890910001809147019130C1F48A3F38
:1019500094F489EF809347018FEF809300012696DE
:101960000FB6F894DEBF0FBECDBFDF91CF911F91B0
:101970000F91FF900895815080934701F0CF8930F7
:101980002CF088E08093470181E0E7CF8F5FF4CFB0
:1019900080914501909146010E941B1A883E934018
:1019A00038F10E940F1A909346018093450180916F
:1019B00043019091440101968170992790934401CD
:1019C0008093430122E032E04091FD016091FC01EF
:1019D00090E080E00E94EC0725E032E04091FD01BC
:1019E0006091FC0190E080E00E94EC070C949D085F
:1019F000089580915801882371F18091FA018695AC
:101A00008F739EE3980F9F73943018F482500C9458
:101A1000E30A9AE3980F9F73933018F486500C945E
:101A2000180B97E3980F9F73963018F489500C9415
:101A3000480B91E3980F9F73963018F48F500C94D5
:101A40009C0B9BE2980F9F73933018F485510C9474
:101A5000220C0C94C80C089590935F0180935E0152
:101A60000895E0915E01F0915F01309721F00190BF
:101A7000F081E02D099480E00895E0915E01F091FD
:101A80005F01309721F00280F381E02D09940895E1
:101A9000E0915E01F0915F01309721F00480F581C3
:101AA000E02D0994089520915C0130915D01281783
:101AB000390771F090935D0180935C01E0915E01C4
:101AC000F0915F01309721F00680F781E02D0994B5
:101AD000089520915A0130915B012817390771F060
:101AE00090935B0180935A01E0915E01F0915F0158
:101AF000309721F00084F185E02D09940895089530
:101B00000C947F0D0E94061A0E9411070E94C11AB0
:101B10000E94601E0C94660AEF92FF921F93CF936F
:101B2000DF9300D000D00F92CDB7DEB70E943F0701
:101B300080E00E94AB07182F80916101F82EF126FA
:101B4000811781F08091CD0181FD0E94B107F0FCE9
:101B50001AC0F1FA882780F9F1FC52C092E082E0C5
:101B6000F2FC13C08FEF89838A831B820E940F1AB5
:101B70008160782F9D838C8349815A816B818D810F
:101B80000E940D0E25C090E080E099831A8221E02A
:101B900030E0790102C0EE0CFF1C8A95E2F7812F3C
:101BA00090E08E219F21892B09F420E02B830E9455
:101BB0000F1A8160782F9D838C8349815A816B81B4
:101BC0008D810E940D0E80916101E826E0926101F5
:101BD0000E946E1D0E94310D90916001891791F055
:101BE0000E94310D809360010F900F900F900F9025
:101BF0000F90DF91CF911F91FF90EF900C94840490
:101C000091E0C3CF0F900F900F900F900F90DF9146
:101C1000CF911F91FF90EF900895CF93DF93CDB7B1
:101C2000DEB72B970FB6F894DEBF0FBECDBF4F8344
:101C3000588769877A878B871E8285E0FE013796F1
:101C4000DE01119601900D928A95E1F749815A8142
:101C50006B817C818D819E812B960FB6F894DEBFBF
:101C60000FBECDBFDF91CF910C94A414882309F44B
:101C7000D8C0823871F40E94310D81FDD2C089E351
:101C80000E9449180E94131989E30E9486180C9437
:101C90001319833859F40E94310D80FDC2C083E5C9
:101CA0000E9449180E94131983E5EFCF843859F434
:101CB0000E94310D82FDB5C087E40E9449180E9440
:101CC000131987E4E2CF9CEF980F913A18F40E9421
:101CD0004918DDCF90E2980F983050F4877091E06A
:101CE00001C0990F8A95EAF7892F0E94CA18CFCFB1
:101CF0009BE5980F933070F4853A31F0863A39F0CD
:101D000083E890E00C94530D81E890E0FBCF82E8EB
:101D100090E0F8CF98E5980F953108F082C0883AA6
:101D200009F440C0893A09F440C08A3A09F440C035
:101D30008B3A09F440C08C3A09F440C08B3B09F45B
:101D400040C08C3B09F440C08D3A09F440C0803B50
:101D500009F440C08E3A09F440C08F3A09F440C0FB
:101D6000813B09F440C0823B09F440C0833B09F445
:101D700040C0843B09F440C0853B09F440C0863B29
:101D800009F440C0873B09F440C0883B09F440C0D7
:101D9000893B09F440C08A3B09F440C090E080E0F0
:101DA0000C94690D82EE90E0FBCF89EE90E0F8CFC5
:101DB0008AEE90E0F5CF85EB90E0F2CF86EB90E0F5
:101DC000EFCF83EB90E0ECCF84EB90E0E9CF87EBB3
:101DD00090E0E6CF8CEC90E0E3CF8DEC90E0E0CFAC
:101DE00083E891E0DDCF8AE891E0DACF82E991E003
:101DF000D7CF84E991E0D4CF81E292E0D1CF83E2E2
:101E000092E0CECF84E292E0CBCF85E292E0C8CFE1
:101E100086E292E0C5CF87E292E0C2CF8AE292E00A
:101E2000BFCF0895882309F44BC0823871F40E9413
:101E3000310D81FF45C089E30E9449180E941319A2
:101E400089E30E9486180C941319833859F40E9470
:101E5000310D80FF35C083E50E9449180E94131997
:101E600083E5EFCF843859F40E94310D82FF28C0FA
:101E700087E40E9449180E94131987E4E2CF9CEF7F
:101E8000980F913AF0F290E2980F983050F48770E2
:101E900091E001C0990F8A95EAF7892F0E94D01826
:101EA000D2CF9BE5980F933020F490E080E00C9423
:101EB000530D885A853120F490E080E00C94690D30
:101EC0000895882321F00E94CA180C9413190895CC
:101ED000882321F00E94D0180C94131908958F9232
:101EE0009F92AF92BF92DF92EF92FF920F931F9358
:101EF000CF93DF9300D000D00F92CDB7DEB77C0137
:101F00006D837983FC01058102950F701281111197
:101F10000E94E9180E944218D82E882371F01123DC
:101F2000A1F08D81805E883080F082E00E942C18C4
:101F30000E94421891E0D82ED926E981E295EF70EF
:101F4000F0E0E556F84D0C943027D12CF6CF0981FE
:101F50000F70F981F07F11F00295007F1123B1F02D
:101F6000002361F08D81805E883018F02D81211171
:101F700009C0802F0E94CA180E9413198D810E94E7
:101F8000360E15C0802F0E94DB18F6CF8D810E947F
:101F9000120F002361F08D81805E883018F03D8142
:101FA000311129C0802F0E94D0180E941319DD2002
:101FB00009F4F3C10E941F1880FDEFC1F7011282DE
:101FC0000E9419180E946216C7010E94DE110E9429
:101FD00019180F900F900F900F900F90DF91CF91E5
:101FE0001F910F91FF90EF90DF90BF90AF909F9067
:101FF0008F900C948416802F0E94E118D6CF4981CF
:102000004F70B42E5981507F503219F0B29480EF46
:10201000B8228D81882369F0813029F1112369F17B
:10202000002359F0F701858180FFA8CF8F70858349
:1020300004C0112361F0011104C08B2D0E94610FB7
:10204000B6CF8B2D0130D1F70E94FD18B0CF011112
:1020500006C00E9400198B2D0E94680FA8CF013086
:1020600009F4A5CFF6CF112321F0063008F09FCF59
:10207000E4CF053008F09BCFEECF002361F38D81D4
:102080000E94120F94CF898186958695837069F09E
:10209000813009F08CCF8D8199819370111102C02C
:1020A00090E080E00E94690D82CF8D8199819370CC
:1020B000111102C090E080E00E94530D78CF8D8115
:1020C000112329F00E947C1C0E94631D70CF0E9486
:1020D000E41CFACF8981837009F05FC0111167CFCA
:1020E0002D81229526952770220F220F8D818F70CA
:1020F00090E0B0E0A0E04C015D01022E04C0880C2D
:10210000991CAA1CBB1C0A94D2F7FD8160E070E008
:10211000CB01F4FF0FC06FE070E080E090E004C0FE
:10212000660F771F881F991F2A95D2F760957095C3
:102130008095909529812695269523702D832230B0
:10214000B1F0233019F19B01AC01282939294A2922
:102150005B2929833A834B835C833D8169817A8142
:102160008B819C813130B1F00E94EF1520CF9B0113
:10217000AC01282939294A295B2929833A834B83D1
:102180005C83CA01B9010E94191611CF0E94EF1594
:10219000C501B4010E94C5150ACF8695112311F01F
:1021A00089818170882309F402CF2D81229526959B
:1021B0002770220F220F8D818F7090E0B0E0A0E099
:1021C0004C015D01022E04C0880C991CAA1CBB1C8A
:1021D0000A94D2F73D8160E070E0CB0134FF0FC07C
:1021E0006FE070E080E090E004C0660F771F881F0A
:1021F000991F2A95D2F760957095809590954981A1
:102200004695469543704D834230B1F0433019F105
:102210009B01AC01282939294A295B2929833A8362
:102220004B835C833D8169817A818B819C813130D4
:10223000B1F00E94F516BBCE9B01AC0128293929CB
:102240004A295B2929833A834B835C83CA01B901FC
:102250000E941F17ACCE0E94F516C501B4010E9462
:10226000CB16A5CE3D81323F09F447C080F4303F04
:1022700079F1313FD9F1832F805E8031D0F0112385
:1022800009F456C001117ACE89818F7133C04D8116
:10229000433FD1F1443F99F7112309F43FC08981AD
:1022A0008F7189830E94621663E089810E942318DE
:1022B0007ECE5D815F705D8389818F71112321F0F6
:1022C0000E9462168D81BACE0E9484168D81C4CE82
:1022D000112341F0053008F06ACE89818F710E9488
:1022E000A91665CE063008F062CEF7CF89818F71CE
:1022F000112339F00E9462165ACE89818F71112301
:10230000C9F30E94841653CE112329F089818F715D
:102310000E944D164CCE0E94431649CE81E00E9489
:102320002C18023008F443CE82E00E942C183FCED5
:102330000111A5CE89818F71E4CF49814F706D81E4
:10234000C7010E94B4020E943E1531CE11112FCE5A
:10235000E981EF70E983E23099F028F4E1110DC0D2
:102360000E94721E24CEF981F33069F0F43009F036
:102370001ECE8D810E94DA1E1ACE0E948A1E17CEB2
:102380000E94A31E14CE0E94B71E11CE49814F7029
:102390006D81C7010E9486040ACE0F900F900F90A6
:1023A0000F900F90DF91CF911F910F91FF90EF90C1
:1023B000DF90BF90AF909F908F9008950F931F93E1
:1023C000CF93DF93EC018B819C81892B29F088814D
:1023D000998189238F3F29F4DF91CF911F910F912C
:1023E0000895CE010E94DE028823B1F368817981CD
:1023F0008A810E94EF178C010E9449170E94BA152A
:10240000B801CE01DF91CF911F910F910C946F0F06
:102410000E94E9180E94FA180E94BC180E94131921
:102420000E94541E0E94631D90E080E00E94530DA4
:1024300090E080E00C94690D0E94D8180C9408126A
:102440000E94E317282F892F82958F70903C80F48B
:102450008A30B0F4843020F4823090F480E0089523
:102460008630E1F781E0203E88F0213FB9F70EC0C9
:102470008C3011F08F3091F793FB882780F9089505
:1024800081E0203F39F018F4203E40F70895243FC2
:1024900029F7FCCF0895CF93DF9300D000D00F929F
:1024A000CDB7DEB70F900F900F900F900F90DF9188
:1024B000CF910895CF93DF9300D000D000D0CDB757
:1024C000DEB726960FB6F894DEBF0FBECDBFDF9104
:1024D000CF9108951F93CF93DF93E091630116E0AE
:1024E000809164018E1304C0DF91CF911F910895F4
:1024F000CE2FD0E01E9FF0011124EB59FE4F4081FA
:10250000518162817381848195810E945A12FE01FA
:102510003196E770E5CF4091950150919601609119
:102520009701709198018091990190919A010C9472
:102530005A121F93CF93DF9380919A01807FC1F449
:10254000809197018823A1F080916301C09164017B
:102550006091950170919601409198015091990177
:10256000D62FD723DA01A095B09516E0C81304C082
:10257000DF91CF911F91089590E04115510511F021
:10258000DF3F31F401968770F1CF2A0F3B1F17C050
:10259000189FF001199FF00D1124EB59FE4F218176
:1025A0002713F0CF20812613EDCF22812111EACF0E
:1025B000238134812417350740F3241B350B283C35
:1025C000310500F720919A012F70206120939A0124
:1025D00026E0289FF001299FF00D1124E659FE4FB7
:1025E00080818F708061808385E991E00E94DE1197
:1025F000DF91CF911F910C946A129F92AF92BF927C
:10260000CF92DF92EF92FF920F931F93CF93DF93BE
:10261000CDB7DEB72B970FB6F894DEBF0FBECDBF98
:102620008C0185E0F801DE01179601900D928A95E4
:10263000E1F7D8014C9111965C9111971296EC90AC
:1026400012978091980190919901009709F46BC1BC
:102650002091950130919601632F62236F3F09F419
:1026600062C11396CD90DC9090909701992009F467
:10267000F8C0C816D90608F43FC0F601E81BF90BEC
:10268000CF01FF24F394883C910508F0F12C85E9F3
:10269000A82E81E0B82E80919A01982F907FFF207C
:1026A00009F4B7C0911180C0FE2C35132AC0241341
:1026B00028C0E11026C08F70806180939A010E942B
:1026C0008B12C5010E94DE1180919A01D8011596E6
:1026D0008C938F2D2B960FB6F894DEBF0FBECDBF17
:1026E000DF91CF911F910F91FF90EF90DF90CF90EE
:1026F000BF90AF909F900895809590958C0D9D1DF3
:10270000C0CFCD2829F0842F85238F3F09F019C130
:1027100080E0B82FB170DB2EE0916301209164015D
:1027200036E080FD1CC0EE20A1F280919A0181600C
:1027300080939A01F12CCDCF8E2F90E03E9FF00137
:102740001124EB59FE4F6181651306C0608164134B
:1027500003C062816E11E7CFFC013196E770E2138E
:10276000EBCF4F8358878F8198850E94E317292FDD
:1027700022952F70903260F0225F2F70223078F413
:102780009F7051F0F8019581907F31F4D12C0AC0EF
:102790009F7011F08823D1F3805E8830B8F3C801B0
:1027A0000E94DE11FD2C95CF351306C0241304C002
:1027B000D801EE2009F47BC04F8358878F8198851C
:1027C0000E942012882309F4B8C0EE2009F4B5C095
:1027D00080919A01803270F020919501309196019C
:1027E0003A8329831B82DD82CC828E83CE010196BF
:1027F0000E94DE1186E0F801A5E9B1E001900D929A
:102800008A95E1F70E9499120E948B12FF24F3949B
:1028100060CF911113C07C2DDB86CA866E2D8B850F
:102820000E944B1285E991E00E94DE1186E0F501DD
:1028300011928A95E9F70E948B124BCF3513BCCFCA
:102840002413BACFE110B8CFD80115968C93C801E4
:102850000E94DE1186E0F50111928A95E9F7F92CC4
:1028600038CFC816D90688F1B601681B790BCB01A1
:10287000F12C883C910508F047C0FE2CEE2009F4AD
:102880005CC0351330C024132EC080919A0180FDA6
:1028900021C0982F907FF1F0D80115968C93159751
:1028A000903F39F0982F907F905F8F70892B15960D
:1028B0008C93C8010E94DE1186E0F801A5E9B1E021
:1028C00001900D928A95E1F7B6CF809590958C0D89
:1028D0009D1DCECF86E0F801A5E9B1E001900D92F3
:1028E0008A95E1F7F6CE4F8358878F8198850E94AD
:1028F000201281117FCF80919A01816080939A018B
:10290000C8010E94DE11E5CE7C2DDB86CA866E2DC5
:102910008B850E944B1286E0E5E9F1E0DF011D9214
:102920008A95E9F788CFEE2041F04F8358878F8151
:1029300098850E94201281115DCFC8010E94DE118E
:1029400065CF81E08E25E5CE1F93CF93DF93CDB782
:10295000DEB72C970FB6F894DEBF0FBECDBF4F8306
:10296000588769877A878B879C87CE0107960E9454
:10297000FD12882369F08A859B85892B39F04F8168
:102980005885842F85238F3F09F071C016E05FC002
:1029900086E0FE013796DE01119601900D928A9530
:1029A000E1F78A859B85892B89F388859F81892317
:1029B0008F3F61F32091640130E0C9010196877077
:1029C0009927409163014817190671F40E941C125F
:1029D000109264011092630186E0E5E9F1E0DF0105
:1029E0001D928A95E9F7D2CF96E0929FD001939FEE
:1029F000B00D1124AB59BE4FFE01319601900D92DE
:102A00009A95E1F7809364010E946A12BFCF819F7B
:102A1000C00111248B599E4F0E94FD128823E9F0BA
:102A2000E09163011E9FF0011124EB59FE4F40819C
:102A3000518162817381848195810E945A128091B3
:102A4000630190E0019687709927809363018091DC
:102A50006301909164018913DACF2C960FB6F89434
:102A6000DEBF0FBECDBFDF91CF911F910895698565
:102A70007A858B859C850E945A1288CFEF92FF92AF
:102A80000F931F93CF93DF938C01892B89F0F12C47
:102A9000EE24E394E8012196F8018491843709F447
:102AA00057C0A0F4823009F43EC048F48130D1F020
:102AB000DF91CF911F910F91FF90EF9008959CEFC0
:102AC000980F9037A8F70E94360E0AC0853709F490
:102AD0004CC09CE7980F903758F78F770E94120FE1
:102AE0008E0116C00E5F1F4FFE01849190E2980F79
:102AF000983060F48770FE2D01C0FF0F8A95EAF7C9
:102B00008F2F0E94EC180E94131902C00E94360EEB
:102B10008F2D815008F4BECFEFE9FFE03197F1F738
:102B200000C00000F6CF0E5F1F4FFE01849190E2BF
:102B3000980F983050F48770FE2D01C0FF0F8A95D2
:102B4000EAF78F2F0E94F218DECF0E94120FE0CF1B
:102B50000E5F1F4FFE01C491C150D0F28FE99FE07C
:102B60000197F1F700C00000F7CF0E5F1F4FFE0185
:102B7000F490CECF08956093A4017093A501809343
:102B8000A6019093A7010C940812CF93DF9300D075
:102B900000D0CDB7DEB769837A838B839C83809125
:102BA000A4019091A501A091A601B091A70129814E
:102BB0003A814B815C81822B932BA42BB52B809384
:102BC000A4019093A501A093A601B093A7010F9033
:102BD0000F900F900F90DF91CF910C940812CF932C
:102BE000DF9300D000D0CDB7DEB769837A838B83C3
:102BF0009C838091A4019091A501A091A601B09120
:102C0000A70129813A814B815C8182239323A423EC
:102C1000B5238093A4019093A501A093A601B0933E
:102C2000A7010F900F900F900F90DF91CF910C9410
:102C30000812CF93DF9300D000D0CDB7DEB7698301
:102C40007A838B839C838091A4019091A501A091AC
:102C5000A601B091A70129813A814B815C8182272D
:102C60009327A427B5278093A4019093A501A0934F
:102C7000A601B093A7010F900F900F900F90DF91D6
:102C8000CF910C9408121092A0011092A101109201
:102C9000A2011092A3010C94081241E050E060E000
:102CA00070E004C0440F551F661F771F8A95D2F746
:102CB0004093A0015093A1016093A2017093A301DE
:102CC0000C940812282F81E090E0A0E0B0E004C04E
:102CD000880F991FAA1FBB1F2A95D2F74091A00108
:102CE0005091A1016091A2017091A301842B952BB9
:102CF000A62BB72B8093A0019093A101A093A201D2
:102D0000B093A3010C94081241E050E060E070E041
:102D100004C0440F551F661F771F8A95D2F7409550
:102D20005095609570958091A0019091A101A0911E
:102D3000A201B091A30184239523A623B7238093F6
:102D4000A0019093A101A093A201B093A3010C94C0
:102D50000812282F81E090E0A0E0B0E004C0880FC6
:102D6000991FAA1FBB1F2A95D2F74091A00150912D
:102D7000A1016091A2017091A30184279527A62744
:102D8000B7278093A0019093A101A093A201B093D3
:102D9000A3010C940812CF93DF9300D000D0CDB7DD
:102DA000DEB769837A838B839C838091A0019091A5
:102DB000A101A091A201B091A30129813A814B8187
:102DC0005C81822B932BA42BB52B8093A001909335
:102DD000A101A093A201B093A3010F900F900F90B7
:102DE0000F90DF91CF910C940812CF93DF9300D016
:102DF00000D0CDB7DEB769837A838B839C838091C3
:102E0000A0019091A101A091A201B091A3012981FB
:102E10003A814B815C8182239323A423B523809341
:102E2000A0019093A101A093A201B093A3010F90E0
:102E30000F900F900F90DF91CF910C940812CF93C9
:102E4000DF9300D000D0CDB7DEB769837A838B8360
:102E50009C838091A0019091A101A091A201B091C9
:102E6000A30129813A814B815C8182279327A42782
:102E7000B5278093A0019093A101A093A201B093E4
:102E8000A3010F900F900F900F90DF91CF910C94B2
:102E900008120895292F220FE22FE90FE80F8E2F35
:102EA000877041E001C0440F8A95EAF7E695E69500
:102EB000E69585E0E89FF0011124E556FE4F30E0ED
:102EC00020E070E05191DF011197CB01022E02C08A
:102ED000969587950A94E2F78170819585278423DA
:102EE00085278C932F5F3F4F2530310559F7089583
:102EF000292F220FE22FE90FE80F9E2F9770E695FA
:102F0000E695E69585E0E89FF0011124E556FE4F31
:102F100050E040E080E0219130E0092E02C036957B
:102F200027950A94E2F721703327042E01C0220F5F
:102F30000A94EAF7822B4F5F5F4F4530510559F7EE
:102F40000895BF92CF92DF92EF92FF920F931F935B
:102F5000CF93DF938C01C090A001D090A101E090AD
:102F6000A201F090A3018091A4019091A501A091EC
:102F7000A601B091A701C82AD92AEA2AFB2ACFE1E3
:102F8000D0E0BC2ED701C6010C2E04C0B695A79583
:102F9000979587950A94D2F780FD0EC0219788F700
:102FA000B12C8B2DDF91CF911F910F91FF90EF905E
:102FB000DF90CF90BF900895B8018C2F0E94A2049B
:102FC000019761F3EECFCF93DF93D82FC92F0E94E3
:102FD000A1176D2F7C2FDF91CF910C94A2041F932A
:102FE000CF93DF93162FD72F90916201992339F059
:102FF000862F972FDF91CF911F910C94E317882391
:1030000091F0862F972F0E94A117C82F682F812F2C
:103010009D2F0E944A17612F7D2F8C2FDF91CF911A
:103020001F910C94A204862F972F0E947817C82F07
:10303000F2CF8091A8018595859585950895809119
:10304000A8018770089598E0899F90011124622B50
:103050006093A8010C9462169091A8018095892331
:103060008093A801282F277061F4282F082E000CC8
:10307000330B9217130629F08595859585950C9449
:10308000841608959091A801977081E009F480E07A
:103090000895909113019923E1F090910C0297FF0C
:1030A00018C0E82FE695E695E695EF3139F12091C5
:1030B000010130910201E20FF32FF11D877021E031
:1030C00030E001C0220F8A95EAF78181822B81834B
:1030D00008952091010130910201F90132969FEF8C
:1030E00040E05191851751F09F3F19F4511101C0F3
:1030F000942F4F5F4E31A9F79F3F09F40895290F90
:10310000311D97FD3A95F90182830895909113013D
:10311000992301F190910C0297FF1CC0E82FE695CE
:10312000E695E695EF3139F12091010130910201E8
:10313000E20FF32FF11D877021E030E0A90102C0FA
:10314000440F551F8A95E2F7CA0180959181892322
:10315000818308952091010130910201F901329695
:10316000205E3F4F9191891303C0DF0111971C929C
:10317000E217F307B9F7089581E090E0E0910101CB
:10318000F0910201E80FF91F10820196803291053B
:10319000A9F708959091CC01982B9093CC010895B4
:1031A000982F90958091CC0189238093CC0108952C
:1031B0001092CC0108959091CB01982B9093CB0164
:1031C0000895982F90958091CB0189238093CB010E
:1031D00008951092CB0108959091CA01982B909375
:1031E000CA010895982F90958091CA0189238093F0
:1031F000CA0108951092CA0108958093A901089503
:103200001092A90108952091010130910201F90164
:103210003196205E3F4F80E0919191118F5FE217D0
:10322000F307D1F70895E0910101F0910201809137
:10323000CC018083E0910101F091020180819091A5
:10324000CB01892B8083E0910101F0910201808103
:103250009091CA01892B80839091A901992361F0F3
:10326000E0910101F09102018081892B80830E940D
:10327000031981111092A90180910101909102011D
:103280000C943D0D6DEE7EEF90E080E00E9468278B
:1032900060E082E090E00E944A2760E083E090E0F6
:1032A0000E944A2760E084E090E00E944A2760E0A4
:1032B00085E090E00E944A2760E086E090E00E946E
:1032C0004A2740E050E0BA0188E090E00C945C2787
:1032D00090E080E00E9444279C0181E02D3E3E4F1B
:1032E00009F080E0089582E090E00C943627682F82
:1032F00082E090E00C944A2783E090E00C9436271B
:10330000682F83E090E00C944A2784E090E00C94CE
:103310003627682F84E090E00C944A2786E090E0FE
:103320000C943627682F86E090E00C944A27809111
:103330001302843051F11092CE0188E190E020E434
:103340000FB6F894A895809360000FBE209360009C
:1033500080E00E94560480E00E94840483B7817F4D
:10336000846083BF83B7816083BF7894889583B777
:103370008E7F83BF0FB6F894A89580916000886116
:1033800080936000109260000FBE08950895089524
:103390000E94C6190E943F070E94C71980E00E9440
:1033A000AB07982F81E0911101C080E008950E9441
:1033B0001C120E94601E0E94310D0C9484041F9206
:1033C0001FB61F9211248F939F93AF93BF93809149
:1033D000CE01811113C08091080290910902A09141
:1033E0000A02B0910B024196A11DB11D8093080203
:1033F00090930902A0930A02B0930B02BF91AF9180
:103400009F918F911F901FBE1F90189582E084BDE1
:1034100093E095BD9AEF97BD80936E0008952FB706
:10342000F8948091080290910902A0910A02B0914B
:103430000B022FBF0895CF92DF92EF92FF929C0173
:103440004FB7F8948091080290910902A0910A0266
:10345000B0910B024FBF6C017D01EE24FF24A90146
:1034600070E060E0C416D506E606F70638F0821B69
:10347000930BFF90EF90DF90CF9008950197F7CFD7
:103480001F921FB61F9211248F939F93AF93BF93E8
:103490008091080290910902A0910A02B0910B025A
:1034A0000196A11DB11D8093080290930902A0937B
:1034B0000A02B0930B02BF91AF919F918F911F9021
:1034C0001FBE1F9018950E94DF22F8942FEF87EA05
:1034D00091E6215080409040E1F700C0000087E075
:1034E00090EBDC0180931C0290931D02A0931E02BE
:1034F000B0931F0288E19CE00FB6F894A8958093E2
:1035000060000FBE90936000FFCFEF92FF920F9389
:103510001F93CF93DF93082F80E00E94AB07D0E08A
:10352000C0E0E82EF12C10E0C7010C2E02C09595EA
:1035300087950A94E2F780FF10C06C2F70E080E05E
:103540000E9487040817190741F481E0DF91CF91A9
:103550001F910F91FF90EF9008952196C330D105F0
:1035600019F780E0F3CFCF93C82F8CE20E94851A21
:10357000882321F08C2FCF910C94851A80E0CF9175
:103580000895CF93DF9300D000D0CDB7DEB70E946F
:103590006819811102C00E94421995E6998308C0FA
:1035A0000E943F078FE39CE90197F1F700C00000FC
:1035B000A981A150A983A111F3CF89E20E94B31A76
:1035C000811110C18AE20E94B31A81110E9442192E
:1035D00085E00E94B31A81110E94631A0E94731938
:1035E0008093CD0187E00E94B31A882371F08BE1AC
:1035F0000E94B31A882309F4D1C09091CD01892F7C
:103600008D7F91FF82608093CD018091CD010E94DA
:1036100077190E94851990E090930D0280930C0217
:1036200080EE0E94B31A882341F090910C02892FFA
:103630008E7F90FF816080930C0289E30E94B31A11
:10364000882341F090910C02892F8D7F91FF826039
:1036500080930C0282EE0E94B31A882341F090916D
:103660000C02892F8B7F92FF846080930C0286EE80
:103670000E94B31A882341F090910C02892F877F12
:1036800093FF886080930C0283EE0E94B31A882314
:1036900041F090910C02892F8F7E94FF806180937E
:1036A0000C0285E30E94B31A882341F090910C022A
:1036B000892F8F7D95FF806280930C0281E30E94A9
:1036C000B31A882341F090910C02892F8F7B96FFCB
:1036D000806480930C0281E10E94B31A882341F038
:1036E00090910C02892F97FB87F9805880930C02E8
:1036F00080910C020E94891987E20E94B31A898383
:103700008EE10E94B31A882319F0B981B260B9839F
:103710008FE10E94B31A882319F02981246029833C
:1037200080E20E94B31A882319F039813860398306
:1037300081E20E94B31A882319F0498140614983CC
:1037400082E20E94B31A882319F05981506259838A
:1037500083E20E94B31A882319F0898180648983E7
:1037600084E20E94B31A8823B1F199819068998309
:1037700089810E9480193981232F30E050E040E098
:1037800029833A834B835C83CA01B9010F900F9060
:103790000F900F90DF91CF910C94BB158EE00E949B
:1037A000B31A882339F09091CD01892F8B7F92FF36
:1037B000846029CF80E10E94B31A9091CD018823C3
:1037C00029F0892F877F93FF88601DCF892F8E7FF7
:1037D00090FF816018CFA981A111CACF0E947C19E6
:1037E000282FCBCF0F900F900F900F90DF91CF919C
:1037F00008958091D10180FF12C06091060185E09B
:10380000689FB00111247595679575956795603827
:103810007105A8F561157105A1F1862F089581FF45
:1038200009C06091060185E0689FB001112475957B
:103830006795EDCF6091060182FD0AC08091D201AB
:103840008823D1F09091050160910601891728F035
:1038500085E0689FB0011124DACF869FB001112462
:1038600085E0869F9001879F300D1124692F70E0BD
:10387000C9010E941C27CBCF65E070E0CECF8FE757
:10388000089581E008958091D10180FF0CC060917E
:10389000040170E0759567957595679561157105DB
:1038A00049F1862F089581FF06C06091040170E000
:1038B00075956795F3CF6091040182FD0BC09091DF
:1038C000D2019923A1F06091030180910401961720
:1038D00038F0682F70E06038710500F38FE70895C5
:1038E000899FC001112470E00E941C27F4CF61E081
:1038F00070E0D7CF81E00895803F31F40E94F91B3A
:1039000081958093D5010895813F19F40E94F91B98
:10391000F8CF823F31F40E94F91B81958093D40146
:103920000895833F19F40E94F91BF8CF893F29F4C9
:103930000E94431C8093D60108958A3F21F40E947F
:10394000431C8195F7CF8B3F31F40E94431C819536
:103950008093D70108958C3F19F40E94431CF8CF3F
:10396000843F31F48091D30181608093D301089525
:10397000853F21F48091D3018260F7CF863F21F407
:103980008091D3018460F1CF873F21F48091D301EE
:103990008860EBCF883F21F48091D3018061E5CF2F
:1039A0008D3F31F48091D10181608093D1010895E0
:1039B0008E3F21F48091D1018260F7CF8F3FB9F71C
:1039C0008091D1018460F1CF9091D401803F41F486
:1039D0008091D50187FD1092D501992371F008954A
:1039E000813F29F48091D5011816ACF3F6CF823FC0
:1039F00081F497FFF2CF1092D4018091D50190917C
:103A0000D601892B9091D701892B49F71092D201C9
:103A10000895833F19F4191674F3DFCF893F39F401
:103A20008091D6011816CCF61092D601D6CF8A3FD7
:103A300029F48091D60187FFD0CFF6CF8B3F39F4A0
:103A40008091D70187FFC9CF1092D701C6CF8C3F95
:103A500029F48091D7011816BCF3BFCF843F31F40D
:103A60008091D3018E7F8093D301B7CF853F21F41E
:103A70008091D3018D7FF7CF863F21F48091D301D0
:103A80008B7FF1CF873F21F48091D301877FEBCFEC
:103A9000883F21F48091D3018F7EE5CF8D3F31F4B3
:103AA0008091D1018E7F8093D10197CF8E3F21F4F9
:103AB0008091D1018D7FF7CF8F3F09F08ECF80911C
:103AC000D1018B7FF0CF83ED91E00E94480D0E94E1
:103AD0000F1A9093D0018093CF0108951F93CF9335
:103AE000DF9300D000D000D0CDB7DEB78091CF01FA
:103AF0009091D0010E941B1AAC018091D2012091BB
:103B0000070130E0811106C0209108019AE0299F49
:103B1000900111244217530788F02091D401A091FD
:103B2000D501A9831091D601B091D701BE8321118F
:103B30000FC09A2F912B9B2B09F0B2C026960FB67F
:103B4000F894DEBF0FBECDBFDF91CF911F910895D6
:103B50008F3F19F08F5F8093D201121624F40E94D8
:103B6000F91B8093D4018091D40187FF05C00E9486
:103B7000F91B81958093D4012981121624F40E94A7
:103B8000F91B8093D5018091D50187FF05C00E9464
:103B9000F91B81958093D5018091D401882309F484
:103BA00055C03091D5013D83332309F44FC0282FF0
:103BB000880F330B440B550B29833A834B835C836B
:103BC000CA01B9010E940F2623E333E343E35FE315
:103BD00069837A838B839C8369817A818B819C81C1
:103BE0000E94732669837A838B839C8369817A819F
:103BF0008B819C810E94D7256093D4018D81082EF2
:103C0000000C990BAA0BBB0B89839A83AB83BC83F3
:103C1000BC01CD010E940F2623E333E343E35FE3BE
:103C200069837A838B839C8369817A818B819C8170
:103C30000E94732669837A838B839C8369817A814E
:103C40008B819C810E94D7256093D501111624F4A5
:103C50000E94431C8093D6018091D60187FF05C046
:103C60000E94431C81958093D6019E81191624F4ED
:103C70000E94431C8093D7018091D70187FF05C024
:103C80000E94431C81958093D70126960FB6F89425
:103C9000DEBF0FBECDBFDF91CF911F910C94631D8E
:103CA0008F3F09F057CF68CF85E0E3EDF1E0DF010A
:103CB0001D928A95E9F71092D2011092D1010895D0
:103CC0000E946819811102C00E9442190E948E1937
:103CD000982F80930E02817090FF02C0892F8695E5
:103CE0000C94560480910E02982F9695863030F4ED
:103CF0009F5F990F8170892B80930E0280910E0235
:103D0000816080930E020E94921980910E02869526
:103D10000C94560480910E02982F9E7F79F0825069
:103D200080930E028E7F91E009F490E080910E0264
:103D300090FB80F980930E020E94921980910E02EE
:103D400086950C94560490910E02892F8E7F90FFD9
:103D5000816080930E020E94921990910E02892F29
:103D6000817090FF02C0892F86950C945604909123
:103D70000E02892F86958F5F8F7791708430B8F40B
:103D8000880F892B80930E0280910E028E7F91E026
:103D900009F490E080910E0290FB80F980930E026E
:103DA0000E94921980910E0286950C94560490936D
:103DB0000E02EACF90910E02292F26952827220F76
:103DC0009170922B90930E029E7F21E009F420E0E7
:103DD00080910E0220FB80F980930E020E949219BE
:103DE00080910E0286950C9456048091F8010895F6
:103DF000CF93DF9300D00F92CDB7DEB7209113029F
:103E0000243019F523E029838A839B832093E900DA
:103E10008FEF9091E800815095FD06C095ED9A9541
:103E2000F1F700008111F5CF8091E80085FF0DC00A
:103E300050E040E063E070E0CE0101960E9457211F
:103E40008091E8008E778093E8000F900F900F909C
:103E5000DF91CF910895CF93DF9300D00F92CDB72C
:103E6000DEB79C0180911302843031F582E08983B2
:103E7000205831093B832A8383E08093E9008FEF48
:103E80009091E800815095FD06C095ED9A95F1F767
:103E900000008111F5CF8091E80085FF0DC050E052
:103EA00040E063E070E0CE0101960E9457218091CE
:103EB000E8008E778093E8000F900F900F90DF91CD
:103EC000CF910895209113022430F1F422E0209341
:103ED000E9002FEF3091E800215035FD06C035EDA7
:103EE0003A95F1F700002111F5CF2091E80025FF68
:103EF0000BC050E040E065E070E00E9457218091E7
:103F0000E8008E778093E8000895CF93DF93D82F51
:103F1000C92F809113028430F1F4909113019923F9
:103F2000E9F090910C0297FF19C08093E9008FEFA0
:103F30009091E800815095FD06C095E19A95F1F7C2
:103F400000008111F5CF8091E80050E040E060E290
:103F500070E085FD1AC0DF91CF91089581E08093D4
:103F6000E9008FEF9091E800815095FD06C095ED36
:103F70009A95F1F700008111F5CF8091E80085FF57
:103F8000EACF50E040E068E070E08D2F9C2F0E9467
:103F900057218091E8008E778093E80080E2ED2F32
:103FA000FC2FA8EDB1E001900D928A95E1F7D3CFF7
:103FB00080911202811109C00E94DF220E943C23DD
:103FC0008091E20084608093E200089510921202D2
:103FD0000895089508950C94D71942E061EC81E0AA
:103FE0000E945B2242E061EC82E00E945B2242E0A0
:103FF00061EC83E00E945B2242E261EC84E00C947D
:104000005B2280911502893089F148F4823009F4ED
:1040100094C0833009F44FC0813041F008958A3054
:1040200009F47BC08B3009F461C0089580911402BB
:10403000813A09F03FC08091E800877F8093E800D3
:104040008091180290911902892B61F460E288ED49
:1040500091E070E00E94A6218091E8008B77809328
:10406000E800089560E090E080E0F3CF80911402D2
:10407000813201F58091180290911902009711F098
:104080000397C1F48091E800877F8093E8008091D6
:10409000E80082FF0BC08091F1008093F8018091CD
:1040A000E8008B778093E8000C948F2280911302B4
:1040B0008111EDCF089580911402813AD9F7809152
:1040C000180290911902892BA9F78091E800877F47
:1040D0008093E8008091E80080FFFCCF809113017D
:1040E0008093F1008091E8008E77DCCF80911402FC
:1040F000813201F78091180290911902892BD1F633
:104100008091E800877F8093E8000E948F22809151
:104110001602809313010C941C12809114028132B8
:1041200049F68091E800877F8093E8000E948F2203
:10413000809117028093F901089580911402813AC9
:1041400009F0B8CF8091E800877F8093E8008091E4
:10415000E80080FFFCCF8091F901C2CF84B7877F50
:1041600084BF0FB6F894A895809160008861809311
:104170006000109260000FBE80E880936100109292
:1041800061000E94800D0E94DF220E943C238091EA
:10419000E20084608093E20078940E94BC250E9433
:1041A000820D89E091E00E942C0D809113028530F0
:1041B00029F00E948C0D0E94F90CF7CF0E949719EC
:1041C00080911102882389F30E94C819882369F31A
:1041D0000E944121EACF9C01DA01892F992783307F
:1041E0009105C1F068F48130910509F445C002974A
:1041F00061F48DE690E02BE533E02D933C93089538
:1042000081329105E1F0829739F190E080E030E071
:1042100020E0F3CFC9019927213059F08230910570
:1042200059F0E7E5F3E0892B81F7849190E09F0155
:10423000E4CFEFE3F3E0F9CFEBE2F3E0F6CF643065
:1042400020F7E62FF0E0EE0FFF1FED5DFE4F20811F
:10425000318189E090E0D1CF6430B8F670E0FB01A5
:10426000EE0FFF1FE55EFE4F20813181695E7E4FBC
:10427000FB01808190E0C1CF82E190E028EC33E047
:10428000BCCF80E189BD82E189BD09B400FEFDCFCC
:104290008091D8008F7D8093D8008091E00082606B
:1042A0008093E0008091E00081FDFCCF0895AF9203
:1042B000BF92CF92DF92FF920F931F93CF93DF9322
:1042C0006C01EB018A010E94AE22F82E811123C0FD
:1042D0000115110539F0F80180819181C81BD90BB6
:1042E000C80ED91EB12CA12C2097A9F08091E8000E
:1042F00085FD22C08091E8008E778093E80001154B
:104300001105A1F0F80180819181A80EB91EB1823A
:10431000A08285E0F82E8F2DDF91CF911F910F9114
:10432000FF90DF90CF90BF90AF9008950E94AE2293
:104330008823D1F2F82EEFCFF60181916F0180939F
:10434000F1002197FFEFAF1ABF0ACECFFC01CB01DE
:1043500020911A0230911B022617370790F0009720
:1043600029F42091E8002E772093E80040E00097A0
:1043700051F4411108C08091E80082FF31C080E013
:104380000895C901F3CF209113022223A9F125300A
:10439000A9F12091E80023FD2DC02091E80022FD25
:1043A000EACF2091E80020FFE2CF3091F300209186
:1043B000F200009719F02830310558F041E028301C
:1043C000310509F040E02091E8002E772093E800C5
:1043D000CECF41914093F10001972F5F3F4FE9CF3E
:1043E00080911302882341F0853041F08091E800EC
:1043F00083FFC1CF81E0089582E0089583E00895AE
:10440000FC01CB0120911A0230911B0226173707BD
:1044100090F0009729F42091E8002E772093E8008F
:1044200040E0009751F4411108C08091E80082FFFC
:1044300032C080E00895C901F3CF209113022223F6
:10444000B1F12530B1F12091E80023FD2EC020917B
:10445000E80022FDEACF2091E80020FFE2CF309172
:10446000F3002091F200009719F02830310558F040
:1044700041E02830310509F040E02091E8002E7736
:104480002093E800CECF44914093F10031960197FC
:104490002F5F3F4FE8CF80911302882341F0853092
:1044A00041F08091E80083FFC0CF81E0089582E071
:1044B000089583E00895982F973028F08F708093A7
:1044C000E90081E008959093E900242F762F50E0D1
:1044D000981731F07091EC002091ED005091F000B0
:1044E00021FD02C09F5FE8CF3091EB003E7F30930B
:1044F000EB003091ED003D7F3093ED003091EB000B
:1045000031603093EB007093EC002093ED005093FA
:10451000F0002091EE0027FDE5CF80E00895809126
:10452000140287FF13C08091E80082FF06C08091CB
:10453000E8008B778093E80004C08091130281111A
:10454000F2CF0895809113028823D9F38091E80077
:1045500080FFF8CF8091E8008E77ECCF2091E400C7
:104560003091E50095E6A9012091EC00822F817041
:1045700020FF06C08091E80080FF06C080E008951B
:104580002091E80022FD1AC080911302882389F04F
:10459000853089F08091EB0085FD0FC02091E4000B
:1045A0003091E50042175307F9F29150E1F684E0AB
:1045B000089582E0089583E0089581E008950E94BF
:1045C0004D230E945523E0EEF0E0808181608083DE
:1045D000E8EDF0E080818F77808319BCA7EDB0E033
:1045E0008C918E7F8C9380818F7E808310921202BB
:1045F00008950F931F93CF93DF930E944D230E9442
:104600005523C8EDD0E088818F77888388818068C2
:10461000888388818F7D888319BC10921302109241
:104620000F02109211021092100200EE10E0F80139
:1046300080818B7F808388818160888342E060E015
:1046400080E00E945B22E1EEF0E080818E7F80833B
:10465000E2EEF0E0808181608083808188608083E9
:10466000F80180818E7F8083888180618883DF91DB
:10467000CF911F910F910895E8EDF0E080818F7E3A
:104680008083E7EDF0E080818160808384E082BFF9
:1046900081E0809312020C94F922E8EDF0E0808131
:1046A0008E7F80831092E20008951092DA001092BB
:1046B000E10008951F920F920FB60F9211242F93CD
:1046C0003F934F935F936F937F938F939F93AF939A
:1046D000BF93EF93FF938091E10082FF0BC0809125
:1046E000E20082FF07C08091E1008B7F8093E100B0
:1046F0000E94BB258091DA0080FF19C08091D8000C
:1047000080FF15C08091DA008E7F8093DA0080915F
:10471000D90080FF94C080E189BD82E189BD09B4E0
:1047200000FEFDCF81E0809313020E94D81F80918C
:10473000E10080FF19C08091E20080FF15C08091E8
:10474000E2008E7F8093E2008091E200806180939E
:10475000E2008091D80080628093D80019BC85E087
:10476000809313020E94EA1F8091E10084FF29C018
:104770008091E20084FF25C080E189BD82E189BD8E
:1047800009B400FEFDCF8091D8008F7D8093D800C2
:104790008091E1008F7E8093E1008091E2008F7E26
:1047A0008093E2008091E20081608093E20080913A
:1047B0000F02882309F449C084E0809313020E9409
:1047C000EB1F8091E10083FF29C08091E20083FF0D
:1047D00025C08091E100877F8093E10082E0809393
:1047E000130210920F028091E1008E7F8093E1000E
:1047F0008091E2008E7F8093E2008091E2008061F0
:104800008093E20042E060E080E00E945B228091C1
:10481000F00088608093F0000E94E91FFF91EF9103
:10482000BF91AF919F918F917F916F915F914F91C8
:104830003F912F910F900FBE0F901F90189519BCAC
:10484000109213020E94E61F72CF8091E30087FD51
:1048500002C081E0B2CF83E0B0CF1F920F920FB6BB
:104860000F9211242F933F934F935F936F937F93F6
:104870008F939F93AF93BF93CF93DF93EF93FF9368
:10488000D091E900DF708091EC00C82FC17080FDED
:10489000C0E81092E9008091F000877F8093F000DB
:1048A00078940E9471241092E9008091F000886051
:1048B0008093F000CD2BCF70C093E900FF91EF9172
:1048C000DF91CF91BF91AF919F918F917F916F9128
:1048D0005F914F913F912F910F900FBE0F901F90BE
:1048E00018951F93CF93DF93CDB7DEB7AA970FB676
:1048F000F894DEBF0FBECDBF84E192E0FC010196CB
:104900002091F100208322E08C319207B9F70E94B8
:1049100001208091E80083FF16C1809114029091DC
:1049200015029A3008F00FC1E92FF0E0E555F84D77
:104930000C943027803881F0823809F004C18091CE
:1049400018028F708093E9008091EB0085FB882727
:1049500080F91092E90006C0809110029091110236
:10496000911182609091E800977F9093E800809386
:10497000F1001092F1008091E8008E77E0C088236A
:1049800009F4CEC0823009F0DEC080911602811198
:10499000D1C0809118028F7009F4D5C08093E900CE
:1049A0002091EB0020FFC6C0933031F48091EB00E2
:1049B00080628093EB00BEC09091EB009061909379
:1049C000EB0021E030E001C0220F8A95EAF7209346
:1049D000EA001092EA008091EB008860EACF811132
:1049E000B2C0109116021F778091E3008078812B6E
:1049F0008093E3008091E800877F8093E8000E9425
:104A00008F228091E80080FFFCCF8091E3008068D6
:104A10008093E30082E0111183E08093130293C03E
:104A20008058823008F08FC0809116029091170252
:104A30008C3D23E09207A1F583E08A838AE2898393
:104A40004FB7F894DE01139620E03EE051E2E32FE9
:104A5000F0E050935700E49120FF03C0E295EF701F
:104A60003F5FEF708E2F90E0EA30C0F0C7968D93D5
:104A70009D932F5F243159F74FBF8091E800877FC6
:104A80008093E8006AE270E0CE0101960E94A621C0
:104A90008091E8008B778093E80055C0C096E7CFFF
:104AA000AE014F5F5F4F609118020E94EB20BC0186
:104AB000892B09F448C08091E800877F8093E80043
:104AC00089819A810E940022E3CF8038E1F58091AC
:104AD000E800877F8093E80080910F028093F100C7
:104AE0004ACF811130C090911602923060F58091CA
:104AF000E800877F8093E80090930F020E948F2246
:104B000080910F02882311F084E005C08091E300BA
:104B100087FDFACF81E0809313020E94ED1F13C03E
:104B200080911602813079F481E0933009F080E0C1
:104B3000809311021092E9008091E800877F8093B2
:104B4000E8000E948F228091E80083FF0AC08091D4
:104B5000E800877F8093E8008091EB00806280937B
:104B6000EB00AA960FB6F894DEBF0FBECDBFDF9163
:104B7000CF911F9108950895CF93809113028823B8
:104B8000A1F0C091E900CF709091EC00892F817065
:104B900090FD80E8C82B1092E9008091E80083FD29
:104BA0000E947124CF70C093E900CF9108950E94B4
:104BB000DE256894B1110C946D2608950E9452264A
:104BC00088F09F5798F0B92F9927B751B0F0E1F0CE
:104BD000660F771F881F991F1AF0BA95C9F714C07E
:104BE000B13091F00E946C26B1E008950C946C26CF
:104BF000672F782F8827B85F39F0B93FCCF38695B7
:104C000077956795B395D9F73EF490958095709513
:104C100061957F4F8F4F9F4F0895E89409C097FB90
:104C20003EF490958095709561957F4F8F4F9F4F83
:104C30009923A9F0F92F96E9BB279395F6958795C7
:104C400077956795B795F111F8CFFAF4BB0F11F48A
:104C500060FF1BC06F5F7F4F8F4F9F4F16C0882331
:104C600011F096E911C0772321F09EE8872F762F67
:104C700005C0662371F096E8862F70E060E02AF0A8
:104C80009A95660F771F881FDAF7880F9695879594
:104C900097F9089557FD9058440F551F59F05F3FFD
:104CA00071F04795880F97FB991F61F09F3F79F04E
:104CB00087950895121613061406551FF2CF4695D0
:104CC000F1DF08C0161617061806991FF1CF869552
:104CD0007105610508940895E894BB276627772736
:104CE000CB0197F908950E9486260C94F7260E941E
:104CF000E92638F00E94F02620F0952311F00C945C
:104D0000E0260C94E62611240C946D260E944A2677
:104D100070F3959FC1F3950F50E0551F629FF0010E
:104D2000729FBB27F00DB11D639FAA27F00DB11D27
:104D3000AA1F649F6627B00DA11D661F829F2227B0
:104D4000B00DA11D621F739FB00DA11D621F839F37
:104D5000A00D611D221F749F3327A00D611D231F0D
:104D6000849F600D211D822F762F6A2F11249F575B
:104D700050409AF0F1F088234AF0EE0FFF1FBB1F5E
:104D8000661F771F881F91505040A9F79E3F51051D
:104D900080F00C94E0260C946D265F3FE4F3983E7F
:104DA000D4F3869577956795B795F795E7959F5FC7
:104DB000C1F7FE2B880F911D9695879597F9089559
:104DC00097F99F6780E870E060E008959FEF80ECBE
:104DD000089500240A941616170618060906089561
:104DE00000240A9412161306140605060895092EC7
:104DF0000394000C11F4882352F0BB0F40F4BF2B36
:104E000011F460FF04C06F5F7F4F8F4F9F4F089575
:104E1000AA1BBB1B51E107C0AA1FBB1FA617B707E0
:104E200010F0A61BB70B881F991F5A95A9F78095FC
:104E30009095BC01CD01089597FB072E16F40094C0
:104E400007D077FD09D00E94082707FC05D03EF463
:104E5000909581959F4F0895709561957F4F089526
:104E6000EE0FFF1F0590F491E02D0994F999FECF04
:104E700092BD81BDF89A992780B50895A6E1B0E06A
:104E800044E050E00C947027A8E1B0E042E050E02C
:104E90000C947027262FF999FECF92BD81BDF89A08
:104EA000019700B4021639F01FBA20BD0FB6F8946E
:104EB000FA9AF99A0FBE08950396272F0E944B275E
:104EC0000E944A27252F0E944B27242F0C944B2702
:104ED0000196272F0E944B270C944A27DC01CB0117
:104EE000FC01F999FECF06C0F2BDE1BDF89A3196FA
:104EF00000B40D9241505040B8F70895F894FFCF98
:104F0000840389038E03930398039D03A203FA038A
:104F10001F04A703B303B703BB03BF03C303C70344
:104F2000CB03CF03D303D703DB03DF03E303E703A1
:104F3000EB03EF03F303A70FA70FFF0FFF0F4310C0
:104F40005F10D70FD70F6A10D70F321132119D1192
:104F5000A611D70FC6119A24BF24A325BF24A325C9
:0A4F6000EF241025A3256525712517
:104F6A00FFAA012808140A321EF51E851F621F2B8C
:104F7A001FF81E01929190404D3639960449041348
:0C4F8A0004DA036D0386039F03B80300E4
:00000001FF
